S026000041737369676E6D656E742031322E315F536572766F205F436F6E74726F6C2E7372656335
S11300000EC015C014C013C012C011C010C00FC060
S11300100EC00DC00CC00BC00AC009C008C011241A
S11300201FBECFE5D2E0DEBFCDBF02D037C0E8CFE0
S113003088E18DBD80B78D6980BF87B3826087BB3F
S11300408CE08EBD8CE08EBD2FE936E881E0215036
S113005030408040E1F700C0000082E18EBD9FE99E
S113006026E831E0915020403040E1F700C0000024
S113007098E19EBD9FE926E831E091502040304050
S1130080E1F700C000008EBD8FE996E821E08150C1
S113009090402040E1F700C00000D4CFF894FFCF97
S9030000FC
